:07010A00010A0002080000D9
:1000F8005389F0438901E4F58CF58AD2A9D2AFD2AD
:020108008C2247
:06011200E4F50A0200F80A
:03000B0002009A56
:10009A00C0E0C0F0C0D075D000C000C006C007C222
:1000AA008C30A01CC2A0C374FF950AFFE49400FE22
:1000BA00EF7802C333CE33CED8F9F5098E08800D16
:1000CA00D2A0E50A75F004A485F008F509E508FF51
:1000DA00C374FF9FF58CC374FF9509F58AC28DD24C
:0E00EA008CD007D006D000D0D0D0F0D0E032BD
:08000300120112750A2180FEB2
:0300000002000EED
:0C000E00787FE4F6D8FD75810A020055E9
:10001A00020003E493A3F8E493A34003F68001F2F9
:10002A0008DFF48029E493A3F85407240CC8C333E7
:10003A00C4540F4420C8834004F456800146F6DFB6
:10004A00E4800B010204081020408090010AE47E3B
:10005A00019360BCA3FF543F30E509541FFEE493AB
:10006A00A360010ECF54C025E060A840B8E493A372
:10007A00FAE493A3F8E493A3C8C582C8CAC583CA9D
:10008A00F0A3C8C582C8CAC583CADFE9DEE780BE55
:0101110000ED
:00000001FF
